{
  "_format": "hh-sol-artifact-1",
  "contractName": "PokeCraftNFT",
  "sourceName": "contracts/PokeCraftNFT.sol",
  "abi": [
    {
      "inputs": [],
      "stateMutability": "nonpayable",
      "type": "constructor"
    },
    {
      "inputs": [
        {
          "internalType": "address",
          "name": "sender",
          "type": "address"
        },
        {
          "internalType": "uint256",
          "name": "tokenId",
          "type": "uint256"
        },
        {
          "internalType": "address",
          "name": "owner",
          "type": "address"
        }
      ],
      "name": "ERC721IncorrectOwner",
      "type": "error"
    },
    {
      "inputs": [
        {
          "internalType": "address",
          "name": "operator",
          "type": "address"
        },
        {
          "internalType": "uint256",
          "name": "tokenId",
          "type": "uint256"
        }
      ],
      "name": "ERC721InsufficientApproval",
      "type": "error"
    },
    {
      "inputs": [
        {
          "internalType": "address",
          "name": "approver",
          "type": "address"
        }
      ],
      "name": "ERC721InvalidApprover",
      "type": "error"
    },
    {
      "inputs": [
        {
          "internalType": "address",
          "name": "operator",
          "type": "address"
        }
      ],
      "name": "ERC721InvalidOperator",
      "type": "error"
    },
    {
      "inputs": [
        {
          "internalType": "address",
          "name": "owner",
          "type": "address"
        }
      ],
      "name": "ERC721InvalidOwner",
      "type": "error"
    },
    {
      "inputs": [
        {
          "internalType": "address",
          "name": "receiver",
          "type": "address"
        }
      ],
      "name": "ERC721InvalidReceiver",
      "type": "error"
    },
    {
      "inputs": [
        {
          "internalType": "address",
          "name": "sender",
          "type": "address"
        }
      ],
      "name": "ERC721InvalidSender",
      "type": "error"
    },
    {
      "inputs": [
        {
          "internalType": "uint256",
          "name": "tokenId",
          "type": "uint256"
        }
      ],
      "name": "ERC721NonexistentToken",
      "type": "error"
    },
    {
      "inputs": [
        {
          "internalType": "address",
          "name": "owner",
          "type": "address"
        }
      ],
      "name": "OwnableInvalidOwner",
      "type": "error"
    },
    {
      "inputs": [
        {
          "internalType": "address",
          "name": "account",
          "type": "address"
        }
      ],
      "name": "OwnableUnauthorizedAccount",
      "type": "error"
    },
    {
      "anonymous": false,
      "inputs": [
        {
          "indexed": true,
          "internalType": "address",
          "name": "owner",
          "type": "address"
        },
        {
          "indexed": true,
          "internalType": "address",
          "name": "approved",
          "type": "address"
        },
        {
          "indexed": true,
          "internalType": "uint256",
          "name": "tokenId",
          "type": "uint256"
        }
      ],
      "name": "Approval",
      "type": "event"
    },
    {
      "anonymous": false,
      "inputs": [
        {
          "indexed": true,
          "internalType": "address",
          "name": "owner",
          "type": "address"
        },
        {
          "indexed": true,
          "internalType": "address",
          "name": "operator",
          "type": "address"
        },
        {
          "indexed": false,
          "internalType": "bool",
          "name": "approved",
          "type": "bool"
        }
      ],
      "name": "ApprovalForAll",
      "type": "event"
    },
    {
      "anonymous": false,
      "inputs": [
        {
          "indexed": true,
          "internalType": "address",
          "name": "previousOwner",
          "type": "address"
        },
        {
          "indexed": true,
          "internalType": "address",
          "name": "newOwner",
          "type": "address"
        }
      ],
      "name": "OwnershipTransferred",
      "type": "event"
    },
    {
      "anonymous": false,
      "inputs": [
        {
          "indexed": true,
          "internalType": "address",
          "name": "from",
          "type": "address"
        },
        {
          "indexed": true,
          "internalType": "address",
          "name": "to",
          "type": "address"
        },
        {
          "indexed": true,
          "internalType": "uint256",
          "name": "tokenId",
          "type": "uint256"
        }
      ],
      "name": "Transfer",
      "type": "event"
    },
    {
      "inputs": [],
      "name": "MINT_PRICE",
      "outputs": [
        {
          "internalType": "uint256",
          "name": "",
          "type": "uint256"
        }
      ],
      "stateMutability": "view",
      "type": "function"
    },
    {
      "inputs": [
        {
          "internalType": "address",
          "name": "to",
          "type": "address"
        },
        {
          "internalType": "uint256",
          "name": "tokenId",
          "type": "uint256"
        }
      ],
      "name": "approve",
      "outputs": [],
      "stateMutability": "nonpayable",
      "type": "function"
    },
    {
      "inputs": [
        {
          "internalType": "address",
          "name": "owner",
          "type": "address"
        }
      ],
      "name": "balanceOf",
      "outputs": [
        {
          "internalType": "uint256",
          "name": "",
          "type": "uint256"
        }
      ],
      "stateMutability": "view",
      "type": "function"
    },
    {
      "inputs": [
        {
          "internalType": "uint256",
          "name": "tokenId",
          "type": "uint256"
        }
      ],
      "name": "getApproved",
      "outputs": [
        {
          "internalType": "address",
          "name": "",
          "type": "address"
        }
      ],
      "stateMutability": "view",
      "type": "function"
    },
    {
      "inputs": [
        {
          "internalType": "address",
          "name": "owner",
          "type": "address"
        },
        {
          "internalType": "address",
          "name": "operator",
          "type": "address"
        }
      ],
      "name": "isApprovedForAll",
      "outputs": [
        {
          "internalType": "bool",
          "name": "",
          "type": "bool"
        }
      ],
      "stateMutability": "view",
      "type": "function"
    },
    {
      "inputs": [
        {
          "internalType": "string",
          "name": "_tokenURI",
          "type": "string"
        }
      ],
      "name": "mint",
      "outputs": [
        {
          "internalType": "uint256",
          "name": "",
          "type": "uint256"
        }
      ],
      "stateMutability": "payable",
      "type": "function"
    },
    {
      "inputs": [],
      "name": "name",
      "outputs": [
        {
          "internalType": "string",
          "name": "",
          "type": "string"
        }
      ],
      "stateMutability": "view",
      "type": "function"
    },
    {
      "inputs": [],
      "name": "owner",
      "outputs": [
        {
          "internalType": "address",
          "name": "",
          "type": "address"
        }
      ],
      "stateMutability": "view",
      "type": "function"
    },
    {
      "inputs": [
        {
          "internalType": "uint256",
          "name": "tokenId",
          "type": "uint256"
        }
      ],
      "name": "ownerOf",
      "outputs": [
        {
          "internalType": "address",
          "name": "",
          "type": "address"
        }
      ],
      "stateMutability": "view",
      "type": "function"
    },
    {
      "inputs": [],
      "name": "renounceOwnership",
      "outputs": [],
      "stateMutability": "nonpayable",
      "type": "function"
    },
    {
      "inputs": [
        {
          "internalType": "address",
          "name": "from",
          "type": "address"
        },
        {
          "internalType": "address",
          "name": "to",
          "type": "address"
        },
        {
          "internalType": "uint256",
          "name": "tokenId",
          "type": "uint256"
        }
      ],
      "name": "safeTransferFrom",
      "outputs": [],
      "stateMutability": "nonpayable",
      "type": "function"
    },
    {
      "inputs": [
        {
          "internalType": "address",
          "name": "from",
          "type": "address"
        },
        {
          "internalType": "address",
          "name": "to",
          "type": "address"
        },
        {
          "internalType": "uint256",
          "name": "tokenId",
          "type": "uint256"
        },
        {
          "internalType": "bytes",
          "name": "data",
          "type": "bytes"
        }
      ],
      "name": "safeTransferFrom",
      "outputs": [],
      "stateMutability": "nonpayable",
      "type": "function"
    },
    {
      "inputs": [
        {
          "internalType": "address",
          "name": "operator",
          "type": "address"
        },
        {
          "internalType": "bool",
          "name": "approved",
          "type": "bool"
        }
      ],
      "name": "setApprovalForAll",
      "outputs": [],
      "stateMutability": "nonpayable",
      "type": "function"
    },
    {
      "inputs": [
        {
          "internalType": "bytes4",
          "name": "interfaceId",
          "type": "bytes4"
        }
      ],
      "name": "supportsInterface",
      "outputs": [
        {
          "internalType": "bool",
          "name": "",
          "type": "bool"
        }
      ],
      "stateMutability": "view",
      "type": "function"
    },
    {
      "inputs": [],
      "name": "symbol",
      "outputs": [
        {
          "internalType": "string",
          "name": "",
          "type": "string"
        }
      ],
      "stateMutability": "view",
      "type": "function"
    },
    {
      "inputs": [
        {
          "internalType": "uint256",
          "name": "tokenId",
          "type": "uint256"
        }
      ],
      "name": "tokenURI",
      "outputs": [
        {
          "internalType": "string",
          "name": "",
          "type": "string"
        }
      ],
      "stateMutability": "view",
      "type": "function"
    },
    {
      "inputs": [
        {
          "internalType": "address",
          "name": "from",
          "type": "address"
        },
        {
          "internalType": "address",
          "name": "to",
          "type": "address"
        },
        {
          "internalType": "uint256",
          "name": "tokenId",
          "type": "uint256"
        }
      ],
      "name": "transferFrom",
      "outputs": [],
      "stateMutability": "nonpayable",
      "type": "function"
    },
    {
      "inputs": [
        {
          "internalType": "address",
          "name": "newOwner",
          "type": "address"
        }
      ],
      "name": "transferOwnership",
      "outputs": [],
      "stateMutability": "nonpayable",
      "type": "function"
    },
    {
      "inputs": [],
      "name": "withdraw",
      "outputs": [],
      "stateMutability": "nonpayable",
      "type": "function"
    }
  ],
  "bytecode": "0x60806040523480156200001157600080fd5b50336040518060400160405280600981526020017f506f6b65437261667400000000000000000000000000000000000000000000008152506040518060400160405280600481526020017f504b4d4e00000000000000000000000000000000000000000000000000000000815250816000908162000090919062000472565b508060019081620000a2919062000472565b505050600073ffffffffffffffffffffffffffffffffffffffff168173ffffffffffffffffffffffffffffffffffffffff16036200011a5760006040517f1e4fbdf70000000000000000000000000000000000000000000000000000000081526004016200011191906200059e565b60405180910390fd5b6200012b816200013260201b60201c565b50620005bb565b6000600660009054906101000a900473ffffffffffffffffffffffffffffffffffffffff16905081600660006101000a81548173ffffffffffffffffffffffffffffffffffffffff021916908373ffffffffffffffffffffffffffffffffffffffff1602179055508173ffffffffffffffffffffffffffffffffffffffff168173ffffffffffffffffffffffffffffffffffffffff167f8be0079c531659141344cd1fd0a4f28419497f9722a3daafe3b4186f6b6457e060405160405180910390a35050565b600081519050919050565b7f4e487b7100000000000000000000000000000000000000000000000000000000600052604160045260246000fd5b7f4e487b7100000000000000000000000000000000000000000000000000000000600052602260045260246000fd5b600060028204905060018216806200027a57607f821691505b60208210810362000290576200028f62000232565b5b50919050565b60008190508160005260206000209050919050565b60006020601f8301049050919050565b600082821b905092915050565b600060088302620002fa7fffffffffffffffffffffffffffffffffffffffffffffffffffffffffffffffff82620002bb565b620003068683620002bb565b95508019841693508086168417925050509392505050565b6000819050919050565b6000819050919050565b6000620003536200034d62000347846200031e565b62000328565b6200031e565b9050919050565b6000819050919050565b6200036f8362000332565b620003876200037e826200035a565b848454620002c8565b825550505050565b600090565b6200039e6200038f565b620003ab81848462000364565b505050565b5b81811015620003d357620003c760008262000394565b600181019050620003b1565b5050565b601f8211156200042257620003ec8162000296565b620003f784620002ab565b8101602085101562000407578190505b6200041f6200041685620002ab565b830182620003b0565b50505b505050565b600082821c905092915050565b6000620004476000198460080262000427565b1980831691505092915050565b600062000462838362000434565b9150826002028217905092915050565b6200047d82620001f8565b67ffffffffffffffff81111562000499576200049862000203565b5b620004a5825462000261565b620004b2828285620003d7565b600060209050601f831160018114620004ea5760008415620004d5578287015190505b620004e1858262000454565b86555062000551565b601f198416620004fa8662000296565b60005b828110156200052457848901518255600182019150602085019450602081019050620004fd565b8683101562000544578489015162000540601f89168262000434565b8355505b6001600288020188555050505b505050505050565b600073ffffffffffffffffffffffffffffffffffffffff82169050919050565b6000620005868262000559565b9050919050565b620005988162000579565b82525050565b6000602082019050620005b560008301846200058d565b92915050565b61245780620005cb6000396000f3fe6080604052600436106101145760003560e01c8063715018a6116100a0578063c002d23d11610064578063c002d23d14610389578063c87b56dd146103b4578063d85d3d27146103f1578063e985e9c514610421578063f2fde38b1461045e57610114565b8063715018a6146102ca5780638da5cb5b146102e157806395d89b411461030c578063a22cb46514610337578063b88d4fde1461036057610114565b806323b872dd116100e757806323b872dd146101e75780633ccfd60b1461021057806342842e0e146102275780636352211e1461025057806370a082311461028d57610114565b806301ffc9a71461011957806306fdde0314610156578063081812fc14610181578063095ea7b3146101be575b600080fd5b34801561012557600080fd5b50610140600480360381019061013b91906118e5565b610487565b60405161014d919061192d565b60405180910390f35b34801561016257600080fd5b5061016b610569565b60405161017891906119d8565b60405180910390f35b34801561018d57600080fd5b506101a860048036038101906101a39190611a30565b6105fb565b6040516101b59190611a9e565b60405180910390f35b3480156101ca57600080fd5b506101e560048036038101906101e09190611ae5565b610617565b005b3480156101f357600080fd5b5061020e60048036038101906102099190611b25565b61062d565b005b34801561021c57600080fd5b5061022561072f565b005b34801561023357600080fd5b5061024e60048036038101906102499190611b25565b610787565b005b34801561025c57600080fd5b5061027760048036038101906102729190611a30565b6107a7565b6040516102849190611a9e565b60405180910390f35b34801561029957600080fd5b506102b460048036038101906102af9190611b78565b6107b9565b6040516102c19190611bb4565b60405180910390f35b3480156102d657600080fd5b506102df610873565b005b3480156102ed57600080fd5b506102f6610887565b6040516103039190611a9e565b60405180910390f35b34801561031857600080fd5b506103216108b1565b60405161032e91906119d8565b60405180910390f35b34801561034357600080fd5b5061035e60048036038101906103599190611bfb565b610943565b005b34801561036c57600080fd5b5061038760048036038101906103829190611d70565b610959565b005b34801561039557600080fd5b5061039e61097e565b6040516103ab9190611bb4565b60405180910390f35b3480156103c057600080fd5b506103db60048036038101906103d69190611a30565b610989565b6040516103e891906119d8565b60405180910390f35b61040b60048036038101906104069190611e94565b610a2e565b6040516104189190611bb4565b60405180910390f35b34801561042d57600080fd5b5061044860048036038101906104439190611edd565b610acd565b604051610455919061192d565b60405180910390f35b34801561046a57600080fd5b5061048560048036038101906104809190611b78565b610b61565b005b60007f80ac58cd000000000000000000000000000000000000000000000000000000007bffffffffffffffffffffffffffffffffffffffffffffffffffffffff1916827bffffffffffffffffffffffffffffffffffffffffffffffffffffffff1916148061055257507f5b5e139f000000000000000000000000000000000000000000000000000000007bffffffffffffffffffffffffffffffffffffffffffffffffffffffff1916827bffffffffffffffffffffffffffffffffffffffffffffffffffffffff1916145b80610562575061056182610be7565b5b9050919050565b60606000805461057890611f4c565b80601f01602080910402602001604051908101604052809291908181526020018280546105a490611f4c565b80156105f15780601f106105c6576101008083540402835291602001916105f1565b820191906000526020600020905b8154815290600101906020018083116105d457829003601f168201915b5050505050905090565b600061060682610c51565b5061061082610cd9565b9050919050565b6106298282610624610d16565b610d1e565b5050565b600073ffffffffffffffffffffffffffffffffffffffff168273ffffffffffffffffffffffffffffffffffffffff160361069f5760006040517f64a0ae920000000000000000000000000000000000000000000000000000000081526004016106969190611a9e565b60405180910390fd5b60006106b383836106ae610d16565b610d30565b90508373ffffffffffffffffffffffffffffffffffffffff168173ffffffffffffffffffffffffffffffffffffffff1614610729578382826040517f64283d7b00000000000000000000000000000000000000000000000000000000815260040161072093929190611f7d565b60405180910390fd5b50505050565b610737610f4a565b61073f610887565b73ffffffffffffffffffffffffffffffffffffffff166108fc479081150290604051600060405180830381858888f19350505050158015610784573d6000803e3d6000fd5b50565b6107a283838360405180602001604052806000815250610959565b505050565b60006107b282610c51565b9050919050565b60008073ffffffffffffffffffffffffffffffffffffffff168273ffffffffffffffffffffffffffffffffffffffff160361082c5760006040517f89c62b640000000000000000000000000000000000000000000000000000000081526004016108239190611a9e565b60405180910390fd5b600360008373ffffffffffffffffffffffffffffffffffffffff1673ffffffffffffffffffffffffffffffffffffffff168152602001908152602001600020549050919050565b61087b610f4a565b6108856000610fd1565b565b6000600660009054906101000a900473ffffffffffffffffffffffffffffffffffffffff16905090565b6060600180546108c090611f4c565b80601f01602080910402602001604051908101604052809291908181526020018280546108ec90611f4c565b80156109395780601f1061090e57610100808354040283529160200191610939565b820191906000526020600020905b81548152906001019060200180831161091c57829003601f168201915b5050505050905090565b61095561094e610d16565b8383611097565b5050565b61096484848461062d565b61097861096f610d16565b85858585611206565b50505050565b66038d7ea4c6800081565b60606008600083815260200190815260200160002080546109a990611f4c565b80601f01602080910402602001604051908101604052809291908181526020018280546109d590611f4c565b8015610a225780601f106109f757610100808354040283529160200191610a22565b820191906000526020600020905b815481529060010190602001808311610a0557829003601f168201915b50505050509050919050565b600066038d7ea4c68000341015610a7a576040517f08c379a0000000000000000000000000000000000000000000000000000000008152600401610a7190612000565b60405180910390fd5b60076000815480929190610a8d9061204f565b919050555060006007549050610aa333826113b7565b82600860008381526020019081526020016000209081610ac39190612243565b5080915050919050565b6000600560008473ffffffffffffffffffffffffffffffffffffffff1673ffffffffffffffffffffffffffffffffffffffff16815260200190815260200160002060008373ffffffffffffffffffffffffffffffffffffffff1673ffffffffffffffffffffffffffffffffffffffff16815260200190815260200160002060009054906101000a900460ff16905092915050565b610b69610f4a565b600073ffffffffffffffffffffffffffffffffffffffff168173ffffffffffffffffffffffffffffffffffffffff1603610bdb5760006040517f1e4fbdf7000000000000000000000000000000000000000000000000000000008152600401610bd29190611a9e565b60405180910390fd5b610be481610fd1565b50565b60007f01ffc9a7000000000000000000000000000000000000000000000000000000007bffffffffffffffffffffffffffffffffffffffffffffffffffffffff1916827bffffffffffffffffffffffffffffffffffffffffffffffffffffffff1916149050919050565b600080610c5d836113d5565b9050600073ffffffffffffffffffffffffffffffffffffffff168173ffffffffffffffffffffffffffffffffffffffff1603610cd057826040517f7e273289000000000000000000000000000000000000000000000000000000008152600401610cc79190611bb4565b60405180910390fd5b80915050919050565b60006004600083815260200190815260200160002060009054906101000a900473ffffffffffffffffffffffffffffffffffffffff169050919050565b600033905090565b610d2b8383836001611412565b505050565b600080610d3c846113d5565b9050600073ffffffffffffffffffffffffffffffffffffffff168373ffffffffffffffffffffffffffffffffffffffff1614610d7e57610d7d8184866115d7565b5b600073ffffffffffffffffffffffffffffffffffffffff168173ffffffffffffffffffffffffffffffffffffffff1614610e0f57610dc0600085600080611412565b6001600360008373ffffffffffffffffffffffffffffffffffffffff1673ffffffffffffffffffffffffffffffffffffffff168152602001908152602001600020600082825403925050819055505b600073ffffffffffffffffffffffffffffffffffffffff168573ffffffffffffffffffffffffffffffffffffffff1614610e92576001600360008773ffffffffffffffffffffffffffffffffffffffff1673ffffffffffffffffffffffffffffffffffffffff168152602001908152602001600020600082825401925050819055505b846002600086815260200190815260200160002060006101000a81548173ffffffffffffffffffffffffffffffffffffffff021916908373ffffffffffffffffffffffffffffffffffffffff160217905550838573ffffffffffffffffffffffffffffffffffffffff168273ffffffffffffffffffffffffffffffffffffffff167fddf252ad1be2c89b69c2b068fc378daa952ba7f163c4a11628f55a4df523b3ef60405160405180910390a4809150509392505050565b610f52610d16565b73ffffffffffffffffffffffffffffffffffffffff16610f70610887565b73ffffffffffffffffffffffffffffffffffffffff1614610fcf57610f93610d16565b6040517f118cdaa7000000000000000000000000000000000000000000000000000000008152600401610fc69190611a9e565b60405180910390fd5b565b6000600660009054906101000a900473ffffffffffffffffffffffffffffffffffffffff16905081600660006101000a81548173ffffffffffffffffffffffffffffffffffffffff021916908373ffffffffffffffffffffffffffffffffffffffff1602179055508173ffffffffffffffffffffffffffffffffffffffff168173ffffffffffffffffffffffffffffffffffffffff167f8be0079c531659141344cd1fd0a4f28419497f9722a3daafe3b4186f6b6457e060405160405180910390a35050565b600073ffffffffffffffffffffffffffffffffffffffff168273ffffffffffffffffffffffffffffffffffffffff160361110857816040517f5b08ba180000000000000000000000000000000000000000000000000000000081526004016110ff9190611a9e565b60405180910390fd5b80600560008573ffffffffffffffffffffffffffffffffffffffff1673ffffffffffffffffffffffffffffffffffffffff16815260200190815260200160002060008473ffffffffffffffffffffffffffffffffffffffff1673ffffffffffffffffffffffffffffffffffffffff16815260200190815260200160002060006101000a81548160ff0219169083151502179055508173ffffffffffffffffffffffffffffffffffffffff168373ffffffffffffffffffffffffffffffffffffffff167f17307eab39ab6107e8899845ad3d59bd9653f200f220920489ca2b5937696c31836040516111f9919061192d565b60405180910390a3505050565b60008373ffffffffffffffffffffffffffffffffffffffff163b11156113b0578273ffffffffffffffffffffffffffffffffffffffff1663150b7a02868685856040518563ffffffff1660e01b8152600401611265949392919061236a565b6020604051808303816000875af19250505080156112a157506040513d601f19601f8201168201806040525081019061129e91906123cb565b60015b611325573d80600081146112d1576040519150601f19603f3d011682016040523d82523d6000602084013e6112d6565b606091505b50600081510361131d57836040517f64a0ae920000000000000000000000000000000000000000000000000000000081526004016113149190611a9e565b60405180910390fd5b805160208201fd5b63150b7a0260e01b7bffffffffffffffffffffffffffffffffffffffffffffffffffffffff1916817bffffffffffffffffffffffffffffffffffffffffffffffffffffffff1916146113ae57836040517f64a0ae920000000000000000000000000000000000000000000000000000000081526004016113a59190611a9e565b60405180910390fd5b505b5050505050565b6113d182826040518060200160405280600081525061169b565b5050565b60006002600083815260200190815260200160002060009054906101000a900473ffffffffffffffffffffffffffffffffffffffff169050919050565b808061144b5750600073ffffffffffffffffffffffffffffffffffffffff168273ffffffffffffffffffffffffffffffffffffffff1614155b1561157f57600061145b84610c51565b9050600073ffffffffffffffffffffffffffffffffffffffff168373ffffffffffffffffffffffffffffffffffffffff16141580156114c657508273ffffffffffffffffffffffffffffffffffffffff168173ffffffffffffffffffffffffffffffffffffffff1614155b80156114d957506114d78184610acd565b155b1561151b57826040517fa9fbf51f0000000000000000000000000000000000000000000000000000000081526004016115129190611a9e565b60405180910390fd5b811561157d57838573ffffffffffffffffffffffffffffffffffffffff168273ffffffffffffffffffffffffffffffffffffffff167f8c5be1e5ebec7d5bd14f71427d1e84f3dd0314c0f7b2291e5b200ac8c7c3b92560405160405180910390a45b505b836004600085815260200190815260200160002060006101000a81548173ffffffffffffffffffffffffffffffffffffffff021916908373ffffffffffffffffffffffffffffffffffffffff16021790555050505050565b6115e28383836116bf565b61169657600073ffffffffffffffffffffffffffffffffffffffff168373ffffffffffffffffffffffffffffffffffffffff160361165757806040517f7e27328900000000000000000000000000000000000000000000000000000000815260040161164e9190611bb4565b60405180910390fd5b81816040517f177e802f00000000000000000000000000000000000000000000000000000000815260040161168d9291906123f8565b60405180910390fd5b505050565b6116a58383611780565b6116ba6116b0610d16565b6000858585611206565b505050565b60008073ffffffffffffffffffffffffffffffffffffffff168373ffffffffffffffffffffffffffffffffffffffff161415801561177757508273ffffffffffffffffffffffffffffffffffffffff168473ffffffffffffffffffffffffffffffffffffffff16148061173857506117378484610acd565b5b8061177657508273ffffffffffffffffffffffffffffffffffffffff1661175e83610cd9565b73ffffffffffffffffffffffffffffffffffffffff16145b5b90509392505050565b600073ffffffffffffffffffffffffffffffffffffffff168273ffffffffffffffffffffffffffffffffffffffff16036117f25760006040517f64a0ae920000000000000000000000000000000000000000000000000000000081526004016117e99190611a9e565b60405180910390fd5b600061180083836000610d30565b9050600073ffffffffffffffffffffffffffffffffffffffff168173ffffffffffffffffffffffffffffffffffffffff16146118745760006040517f73c6ac6e00000000000000000000000000000000000000000000000000000000815260040161186b9190611a9e565b60405180910390fd5b505050565b6000604051905090565b600080fd5b600080fd5b60007fffffffff0000000000000000000000000000000000000000000000000000000082169050919050565b6118c28161188d565b81146118cd57600080fd5b50565b6000813590506118df816118b9565b92915050565b6000602082840312156118fb576118fa611883565b5b6000611909848285016118d0565b91505092915050565b60008115159050919050565b61192781611912565b82525050565b6000602082019050611942600083018461191e565b92915050565b600081519050919050565b600082825260208201905092915050565b60005b83811015611982578082015181840152602081019050611967565b60008484015250505050565b6000601f19601f8301169050919050565b60006119aa82611948565b6119b48185611953565b93506119c4818560208601611964565b6119cd8161198e565b840191505092915050565b600060208201905081810360008301526119f2818461199f565b905092915050565b6000819050919050565b611a0d816119fa565b8114611a1857600080fd5b50565b600081359050611a2a81611a04565b92915050565b600060208284031215611a4657611a45611883565b5b6000611a5484828501611a1b565b91505092915050565b600073ffffffffffffffffffffffffffffffffffffffff82169050919050565b6000611a8882611a5d565b9050919050565b611a9881611a7d565b82525050565b6000602082019050611ab36000830184611a8f565b92915050565b611ac281611a7d565b8114611acd57600080fd5b50565b600081359050611adf81611ab9565b92915050565b60008060408385031215611afc57611afb611883565b5b6000611b0a85828601611ad0565b9250506020611b1b85828601611a1b565b9150509250929050565b600080600060608486031215611b3e57611b3d611883565b5b6000611b4c86828701611ad0565b9350506020611b5d86828701611ad0565b9250506040611b6e86828701611a1b565b9150509250925092565b600060208284031215611b8e57611b8d611883565b5b6000611b9c84828501611ad0565b91505092915050565b611bae816119fa565b82525050565b6000602082019050611bc96000830184611ba5565b92915050565b611bd881611912565b8114611be357600080fd5b50565b600081359050611bf581611bcf565b92915050565b60008060408385031215611c1257611c11611883565b5b6000611c2085828601611ad0565b9250506020611c3185828601611be6565b9150509250929050565b600080fd5b600080fd5b7f4e487b7100000000000000000000000000000000000000000000000000000000600052604160045260246000fd5b611c7d8261198e565b810181811067ffffffffffffffff82111715611c9c57611c9b611c45565b5b80604052505050565b6000611caf611879565b9050611cbb8282611c74565b919050565b600067ffffffffffffffff821115611cdb57611cda611c45565b5b611ce48261198e565b9050602081019050919050565b82818337600083830152505050565b6000611d13611d0e84611cc0565b611ca5565b905082815260208101848484011115611d2f57611d2e611c40565b5b611d3a848285611cf1565b509392505050565b600082601f830112611d5757611d56611c3b565b5b8135611d67848260208601611d00565b91505092915050565b60008060008060808587031215611d8a57611d89611883565b5b6000611d9887828801611ad0565b9450506020611da987828801611ad0565b9350506040611dba87828801611a1b565b925050606085013567ffffffffffffffff811115611ddb57611dda611888565b5b611de787828801611d42565b91505092959194509250565b600067ffffffffffffffff821115611e0e57611e0d611c45565b5b611e178261198e565b9050602081019050919050565b6000611e37611e3284611df3565b611ca5565b905082815260208101848484011115611e5357611e52611c40565b5b611e5e848285611cf1565b509392505050565b600082601f830112611e7b57611e7a611c3b565b5b8135611e8b848260208601611e24565b91505092915050565b600060208284031215611eaa57611ea9611883565b5b600082013567ffffffffffffffff811115611ec857611ec7611888565b5b611ed484828501611e66565b91505092915050565b60008060408385031215611ef457611ef3611883565b5b6000611f0285828601611ad0565b9250506020611f1385828601611ad0565b9150509250929050565b7f4e487b7100000000000000000000000000000000000000000000000000000000600052602260045260246000fd5b60006002820490506001821680611f6457607f821691505b602082108103611f7757611f76611f1d565b5b50919050565b6000606082019050611f926000830186611a8f565b611f9f6020830185611ba5565b611fac6040830184611a8f565b949350505050565b7f496e73756666696369656e74207061796d656e74000000000000000000000000600082015250565b6000611fea601483611953565b9150611ff582611fb4565b602082019050919050565b6000602082019050818103600083015261201981611fdd565b9050919050565b7f4e487b7100000000000000000000000000000000000000000000000000000000600052601160045260246000fd5b600061205a826119fa565b91507fffffffffffffffffffffffffffffffffffffffffffffffffffffffffffffffff820361208c5761208b612020565b5b600182019050919050565b60008190508160005260206000209050919050565b60006020601f8301049050919050565b600082821b905092915050565b6000600883026120f97fffffffffffffffffffffffffffffffffffffffffffffffffffffffffffffffff826120bc565b61210386836120bc565b95508019841693508086168417925050509392505050565b6000819050919050565b600061214061213b612136846119fa565b61211b565b6119fa565b9050919050565b6000819050919050565b61215a83612125565b61216e61216682612147565b8484546120c9565b825550505050565b600090565b612183612176565b61218e818484612151565b505050565b5b818110156121b2576121a760008261217b565b600181019050612194565b5050565b601f8211156121f7576121c881612097565b6121d1846120ac565b810160208510156121e0578190505b6121f46121ec856120ac565b830182612193565b50505b505050565b600082821c905092915050565b600061221a600019846008026121fc565b1980831691505092915050565b60006122338383612209565b9150826002028217905092915050565b61224c82611948565b67ffffffffffffffff81111561226557612264611c45565b5b61226f8254611f4c565b61227a8282856121b6565b600060209050601f8311600181146122ad576000841561229b578287015190505b6122a58582612227565b86555061230d565b601f1984166122bb86612097565b60005b828110156122e3578489015182556001820191506020850194506020810190506122be565b8683101561230057848901516122fc601f891682612209565b8355505b6001600288020188555050505b505050505050565b600081519050919050565b600082825260208201905092915050565b600061233c82612315565b6123468185612320565b9350612356818560208601611964565b61235f8161198e565b840191505092915050565b600060808201905061237f6000830187611a8f565b61238c6020830186611a8f565b6123996040830185611ba5565b81810360608301526123ab8184612331565b905095945050505050565b6000815190506123c5816118b9565b92915050565b6000602082840312156123e1576123e0611883565b5b60006123ef848285016123b6565b91505092915050565b600060408201905061240d6000830185611a8f565b61241a6020830184611ba5565b939250505056fea2646970667358221220fad63c455746b27c831dd5facd39532c162e4b484d63a97f6740eaeb06bee6a064736f6c63430008140033",
  "linkReferences": {},
  "deployedLinkReferences": {}
}